:100000000C942A000C9447000C9447000C94470071
:100010000C9447000C9447000C9447000C94470044
:100020000C9447000C9447000C942E110C94011171
:100030000C9447000C9447000C9447000C94470024
:100040000C9447000C9447000C9447000C94470014
:100050000C94470011241FBECFE5D8E0DEBFCDBF12
:1000600011E0A0E6B0E0EAE3F4E202C005900D92F0
:10007000A037B107D9F711E0A0E7B1E001C01D92A8
:10008000A237B107E1F70E9496110C941B120C9451
:100090000000EF92FF920F931F937B018C0120E0F1
:1000A00030E040E05FE40E94F50388238CF0C80153
:1000B000B70120E030E040E05FE40E94C1010E940F
:1000C00055049B01AC01205030404040504806C0D0
:1000D000C801B7010E9455049B01AC01B901CA01D6
:1000E0001F910F91FF90EF900895A0E0B0E0EBE733
:1000F000F0E00C949F11DC012B01FA019C919230ED
:1001000008F439C1EB018881823008F433C194309E
:1001100069F4843009F02FC111969C91119789815F
:10012000981709F428C1A0E6B0E025C1843009F48D
:1001300021C18230A9F4923009F01DC19A01AD01AC
:1001400088E0EA010990AE01E90109929E0181501F
:10015000C1F7E201898111969C918923818308C1AD
:10016000923009F407C112962D903C901397EB0141
:100170008A819B811496AD90BD90CD90DC901797AD
:10018000EC80FD800E811F819101281B390BB90184
:1001900037FF04C066277727621B730B6032710537
:1001A0000CF061C0121613066CF537014801062EDB
:1001B00004C096948794779467940A94D2F721E0C8
:1001C00030E040E050E004C0220F331F441F551FB1
:1001D0006A95D2F721503040404050402E213F21B7
:1001E00040235123211531054105510521F021E01E
:1001F00030E040E050E079018A01E628F72808293C
:1002000019293CC0232BD1F1260E371E350146019A
:10021000062E04C096948794779467940A94D2F734
:1002200021E030E040E050E004C0220F331F441FC3
:10023000551F6A95D2F721503040404050402A2146
:100240003B214C215D21211531054105510521F04E
:1002500021E030E040E050E059016A01A628B728CB
:10026000C828D9280BC0821593052CF01C01AA249C
:10027000BB24650103C0EE24FF24870111969C91E5
:10028000D20111968C91981709F445C0992339F041
:10029000A80197012A193B094C095D0906C0A6016E
:1002A00095012E193F09400B510B57FD08C01182D3
:1002B0003382228224833583468357831DC081E0A5
:1002C00081833382228288279927DC01821B930B4A
:1002D000A40BB50B84839583A683B7830DC0220F2F
:1002E000331F441F551F24833583468357838281E0
:1002F000938101979383828324813581468157813D
:10030000DA01C9010197A109B1098F5F9F4FAF4F72
:10031000BF4328F30BC0918333822282EA0CFB1C7B
:100320000C1D1D1DE482F5820683178383E0808304
:10033000248135814681578157FF1AC0C901AA27F8
:1003400097FDA095BA2F81709070A070B0705695EF
:10035000479537952795822B932BA42BB52B848318
:100360009583A683B7838281938101969383828349
:10037000DF0101C0D201CD01CDB7DEB7E2E10C94BF
:10038000BB11A0E2B0E0E7ECF1E00C94AB116983A3
:100390007A838B839C832D833E834F835887E9E048
:1003A000EE2EF12CEC0EFD1ECE010196B7010E943F
:1003B00046068E010F5E1F4FCE010596B8010E94C2
:1003C00046068A8991E089278A8BC701B801AE0168
:1003D000475E5F4F0E9475000E947105A096E6E09F
:1003E0000C94C711A0E2B0E0E8EFF1E00C94AB117F
:1003F00069837A838B839C832D833E834F835887C5
:10040000F9E0EF2EF12CEC0EFD1ECE010196B701A6
:100410000E9446068E010F5E1F4FCE010596B80161
:100420000E944606C701B801AE01475E5F4F0E94B9
:1004300075000E947105A096E6E00C94C711A0E239
:10044000B0E0E5E2F2E00C949F1169837A838B833C
:100450009C832D833E834F835887CE010196BE0136
:10046000675F7F4F0E944606CE010596BE016F5E14
:100470007F4F0E9446069985923088F089898230A4
:10048000C8F0943019F4823051F404C0843029F457
:10049000923081F480E690E0C6C0923049F420E0CA
:1004A0009A858A89981321E02A87CE010996BBC0D4
:1004B000823049F420E09A858A89981321E02A8BBA
:1004C000CE014196B0C02D843E844F8458886D88FB
:1004D0007E888F88988CEE24FF248701AA24BB2471
:1004E000650140E050E060E070E0E0E0F0E0C10174
:1004F00081709070892BE9F0E60CF71C081D191D1E
:100500009A01AB012A0D3B1D4C1D5D1D80E090E062
:10051000A0E0B0E0E614F7040805190520F481E036
:1005200090E0A0E0B0E0BA01A901480F591F6A1F8E
:100530007B1FAA0CBB1CCC1CDD1C97FE08C081E0F5
:1005400090E0A0E0B0E0A82AB92ACA2ADB2A3196B6
:10055000E032F10549F0660C771C881C991C569412
:10056000479437942794C3CFFA85EA892B893C892D
:100570008B859C85280F391F2E5F3F4F17C0CA01FE
:1005800081709070892B61F016950795F794E79428
:1005900080E090E0A0E0B0E8E82AF92A0A2B1B2BC3
:1005A00076956795579547952F5F3F4F77FDE7CF36
:1005B0000CC0440F551F661F771F17FD4160EE0CDE
:1005C000FF1C001F111F21503040403090E05907A0
:1005D00090E0690790E4790760F32B8F3C8FDB0193
:1005E000CA018F779070A070B07080349105A1051A
:1005F000B10561F447FD0AC0E114F10401051105DC
:1006000029F0405C5F4F6F4F7F4F40781A8EFE1786
:1006100011F081E08A8F4D8F5E8F6F8F78A383E01A
:10062000898FCE0149960E947105A096E2E10C9453
:10063000BB11A8E1B0E0EFE1F3E00C94A7116983EE
:100640007A838B839C832D833E834F835887B9E0C5
:10065000EB2EF12CEC0EFD1ECE010196B7010E948F
:1006600046068E010F5E1F4FCE010596B8010E940F
:1006700046062985223008F47EC03989323010F4CC
:10068000B8017CC08A859A8989278A87243011F02D
:10069000223031F4231709F06EC060E670E06EC0BE
:1006A000343039F41D861E861F86188A1C861B86E8
:1006B00004C0323021F484E08987B7015FC02B8504
:1006C0003C858B899C89281B390B3C872B87ED84C3
:1006D000FE840F851889AD88BE88CF88D88CEA142F
:1006E000FB040C051D0540F4EE0CFF1C001F111F40
:1006F000215030403C872B8720E030E040E050E044
:1007000080E090E0A0E0B0E460E070E0EA14FB0478
:100710000C051D0540F0282B392B4A2B5B2BEA18C2
:10072000FB080C091D09B695A79597958795EE0CC2
:10073000FF1C001F111F6F5F7F4F6F31710531F775
:10074000DA01C9018F779070A070B0708034910584
:10075000A105B10561F427FD0AC0E114F10401050A
:10076000110529F0205C3F4F4F4F5F4F20782D87B8
:100770003E874F87588BBE01675F7F4FCB010E943A
:1007800071056896EAE00C94C311A8E1B0E0EBECC7
:10079000F3E00C94AB1169837A838B839C832D8364
:1007A0003E834F83588789E0E82EF12CEC0EFD1E26
:1007B000CE010196B7010E9446068E010F5E1F4FC3
:1007C000CE010596B8010E9446068985823040F028
:1007D0008989823028F0C701B8010E94BE0601C095
:1007E0008FEF6896E6E00C94C711A8E1B0E0EBEF5C
:1007F000F3E00C94AB1169837A838B839C832D8304
:100800003E834F83588789E0E82EF12CEC0EFD1EC5
:10081000CE010196B7010E9446068E010F5E1F4F62
:10082000CE010596B8010E9446068985823040F0C7
:100830008989823028F0C701B8010E94BE0601C034
:100840008FEF6896E6E00C94C711A8E1B0E0EBE208
:10085000F4E00C94AB1169837A838B839C832D83A2
:100860003E834F83588789E0E82EF12CEC0EFD1E65
:10087000CE010196B7010E9446068E010F5E1F4F02
:10088000CE010596B8010E9446068985823040F067
:100890008989823028F0C701B8010E94BE0601C0D4
:1008A00081E06896E6E00C94C711ACE0B0E0EBE5BF
:1008B000F4E00C94AF1169837A838B839C83CE011F
:1008C0000196BE016B5F7F4F0E9446068D8182308C
:1008D00061F1823050F1843021F48E81882351F10E
:1008E0002EC02F81388537FD20C06E812F31310514
:1008F0001CF06623F9F023C08EE190E0821B930B7D
:1009000029853A854B855C8504C056954795379572
:1009100027958A95D2F76623B1F05095409530958A
:1009200021953F4F4F4F5F4F0EC020E030E040E039
:1009300050E009C02FEF3FEF4FEF5FE704C020E02A
:1009400030E040E050E8B901CA012C96E2E00C9496
:10095000CB11A8E0B0E0EFEAF4E00C94A7117B0122
:100960008C01611571058105910519F482E0898377
:1009700060C083E089838EE1C82ED12CDC82CB82DB
:10098000ED82FE820F831887C801B7010E942205FD
:10099000FC013197F7FF3BC0222733272E1B3F0B6B
:1009A00057016801022E04C0D694C794B794A79447
:1009B0000A94D2F740E050E060E070E081E090E01F
:1009C000A0E0B0E004C0880F991FAA1FBB1F2A95A2
:1009D000D2F70197A109B1098E219F21A023B1234C
:1009E0000097A105B10521F041E050E060E070E022
:1009F0004A295B296C297D294D835E836F83788723
:100A00008EE190E08E1B9F0B9C838B8312C03097EE
:100A100081F00E2E04C0EE0CFF1C001F111F0A9463
:100A2000D2F7ED82FE820F831887CE1ADF0ADC82AE
:100A3000CB821A82CE0101960E9471052896EAE0C7
:100A40000C94C311EF92FF920F931F937B018C01C3
:100A500080E0E81680E0F80681E0080780E01807EB
:100A600088F48FEFE816F1040105110531F028F044
:100A700088E090E0A0E0B0E017C080E090E0A0E067
:100A8000B0E012C080E0E81680E0F80680E00807D9
:100A900081E0180728F088E190E0A0E0B0E004C011
:100AA00080E190E0A0E0B0E020E230E040E050E003
:100AB000281B390B4A0B5B0B04C016950795F7945E
:100AC000E7948A95D2F7F701E859FF4F8081281BF8
:100AD000310941095109C9011F910F91FF90EF9010
:100AE0000895DF92EF92FF920F931F93FC01E48031
:100AF000F58006811781D1808081823048F480E0C2
:100B000090E0A0E1B0E0E82AF92A0A2B1B2BA5C04F
:100B1000843009F49FC0823021F4EE24FF24870141
:100B200005C0E114F1040105110519F4E0E0F0E05D
:100B300096C0628173819FEF623879070CF05BC0C9
:100B400022E83FEF261B370B2A3131052CF020E03D
:100B500030E040E050E02AC0B801A701022E04C0F6
:100B600076956795579547950A94D2F781E090E07E
:100B7000A0E0B0E004C0880F991FAA1FBB1F2A95F0
:100B8000D2F70197A109B1098E219F21A023B1239A
:100B90000097A105B10521F081E090E0A0E0B0E070
:100BA0009A01AB01282B392B4A2B5B2BDA01C901A7
:100BB0008F779070A070B07080349105A105B10559
:100BC00039F427FF09C0205C3F4F4F4F5F4F04C0EF
:100BD000215C3F4F4F4F5F4FE0E0F0E02030A0E05E
:100BE0003A07A0E04A07A0E45A0710F0E1E0F0E07D
:100BF00079018A0127C06038710564F5FB01E1586D
:100C0000FF4FD801C7018F779070A070B07080340B
:100C10009105A105B10539F4E7FE0DC080E490E02F
:100C2000A0E0B0E004C08FE390E0A0E0B0E0E80E08
:100C3000F91E0A1F1B1F17FF05C016950795F7948D
:100C4000E794319687E016950795F794E7948A958F
:100C5000D1F705C0EE24FF248701EFEFF0E06E2FFF
:100C6000679566276795902F9F77D794DD24D79453
:100C70008E2F8695492F462B582F5D29B701CA0123
:100C80001F910F91FF90EF90DF900895FC01DB0121
:100C9000408151812281622F6F7770E0221F2227CD
:100CA000221F9381892F880F822B282F30E0991FD4
:100CB0009927991F11969C93119721153105A9F534
:100CC000411551056105710511F482E037C082E8D4
:100CD0009FEF13969C938E9312979A01AB0167E056
:100CE000220F331F441F551F6A95D1F783E08C9361
:100CF0000DC0220F331F441F551F12968D919C91DA
:100D00001397019713969C938E931297203080E04F
:100D1000380780E0480780E4580758F314962D936D
:100D20003D934D935C93179708952F3F310579F4C8
:100D3000411551056105710519F484E08C930895FE
:100D400064FF03C081E08C9312C01C9210C02F5727
:100D5000304013963C932E93129783E08C9387E058
:100D6000440F551F661F771F8A95D1F7706414963C
:100D70004D935D936D937C93179708951F93DC01BA
:100D8000FB019C91923008F447C08081823008F4C6
:100D900043C0943051F411961C91843099F58181AF
:100DA000682F70E0611B71093FC0843021F09230E0
:100DB00031F48230B9F18181882389F12DC01196F7
:100DC0001C9111978230F1F081811817D9F4129695
:100DD0002D913C911397828193818217930794F010
:100DE00028173907BCF014968D919D910D90BC91F8
:100DF000A02D2481358146815781281739074A075C
:100E00005B0718F4112341F00AC082179307A40767
:100E1000B50740F4112319F061E070E005C06FEFF1
:100E20007FEF02C060E070E0CB011F910895DF9377
:100E3000CF93CDB7DEB7E7E2F0E080E48083E6E26F
:100E4000F0E087ED8083CF91DF910895DF93CF931A
:100E50000F92CDB7DEB78983898187708983A7E236
:100E6000B0E0E7E2F0E08081807E8C93A7E2B0E022
:100E7000E7E2F0E090818981892B8C93A6E2B0E0D3
:100E8000E6E2F0E0808180648C93E6E2F0E080812D
:100E9000882F90E0807190709595879595958795AE
:100EA0009595879595958795009779F3A6E2B0E09B
:100EB000E6E2F0E0808180618C93E4E2F0E0808102
:100EC00091810F90CF91DF910895DF93CF93CDB7AC
:100ED000DEB784E161E00E94A707CF91DF9108951A
:100EE000DF93CF93CDB7DEB784E161E00E94EA08DB
:100EF000CF91DF910895DF93CF93CDB7DEB784E133
:100F000060E00E94EA08CF91DF910895DF93CF93CC
:100F1000CDB7DEB787E061E00E94A707CF91DF91F0
:100F20000895DF93CF93CDB7DEB787E061E00E94ED
:100F3000EA08CF91DF910895DF93CF93CDB7DEB765
:100F400087E060E00E94EA08CF91DF910895DF9387
:100F5000CF9300D000D0CDB7DEB789836A83898173
:100F6000282F30E03C832B838B819C81803191053D
:100F700064F42B813C81283031050CF043C08B8117
:100F80009C8199230CF4DEC00DC02B813C8128315B
:100F900031050CF46DC08B819C81803291050CF081
:100FA000D1C09CC08A818130A1F4A1E3B0E0E1E32B
:100FB000F0E08081482F8981282F30E081E090E0A7
:100FC000022E02C0880F991F0A94E2F7842B8C939B
:100FD000B9C08A81882309F0B5C0A1E3B0E0E1E39C
:100FE000F0E08081482F8981282F30E081E090E077
:100FF000022E02C0880F991F0A94E2F7809584237D
:101000008C93A0C08A818130B9F4A4E3B0E0E4E31A
:10101000F0E08081482F8981882F90E09C01285042
:10102000304081E090E0022E02C0880F991F0A94A0
:10103000E2F7842B8C9386C08A81882309F082C0D2
:10104000A4E3B0E0E4E3F0E08081482F8981882FB9
:1010500090E09C012850304081E090E0022E02C0D8
:10106000880F991F0A94E2F7809584238C936AC0B5
:101070008A818130B9F4A7E3B0E0E7E3F0E0808152
:10108000482F8981882F90E09C012051304081E0D9
:1010900090E0022E02C0880F991F0A94E2F7842B79
:1010A0008C9350C08A81882309F04CC0A7E3B0E03C
:1010B000E7E3F0E08081482F8981882F90E09C0150
:1010C0002051304081E090E0022E02C0880F991F2D
:1010D0000A94E2F7809584238C9334C08A8181300E
:1010E000B9F4AAE3B0E0EAE3F0E08081482F898117
:1010F000882F90E09C012851304081E090E0022E42
:1011000002C0880F991F0A94E2F7842B8C931AC0AF
:101110008A818823B9F4AAE3B0E0EAE3F0E08081B1
:10112000482F8981882F90E09C012851304081E030
:1011300090E0022E02C0880F991F0A94E2F7809572
:1011400084238C930F900F900F900F90CF91DF918D
:101150000895DF93CF9300D000D0CDB7DEB7898359
:101160006A838981282F30E03C832B838B819C818B
:1011700081309105D1F02B813C81223031052CF456
:101180008B819C81009761F01EC02B813C812230B5
:10119000310581F08B819C818330910581F013C0F2
:1011A000EBE3F0E08A8180830EC0E8E3F0E08A811F
:1011B000808309C0E5E3F0E08A81808304C0E2E334
:1011C000F0E08A8180830F900F900F900F90CF9165
:1011D000DF910895DF93CF9300D000D0CDB7DEB775
:1011E00089836A838981282F30E03C832B838B811C
:1011F0009C818031910564F42B813C81283031053C
:101200000CF043C08B819C8199230CF4DEC00DC08F
:101210002B813C81283131050CF46DC08B819C8180
:10122000803291050CF0D1C09CC08A818130A1F43C
:10123000A2E3B0E0E2E3F0E08081482F8981282F2B
:1012400030E081E090E0022E02C0880F991F0A94DE
:10125000E2F7842B8C93B9C08A81882309F0B5C04A
:10126000A2E3B0E0E2E3F0E08081482F8981282FFB
:1012700030E081E090E0022E02C0880F991F0A94AE
:10128000E2F7809584238C93A0C08A818130B9F4E1
:10129000A5E3B0E0E5E3F0E08081482F8981882F65
:1012A00090E09C012850304081E090E0022E02C086
:1012B000880F991F0A94E2F7842B8C9386C08A8149
:1012C000882309F082C0A5E3B0E0E5E3F0E0808187
:1012D000482F8981882F90E09C012850304081E080
:1012E00090E0022E02C0880F991F0A94E2F78095C1
:1012F00084238C936AC08A818130B9F4A8E3B0E07A
:10130000E8E3F0E08081482F8981882F90E09C01FC
:101310002051304081E090E0022E02C0880F991FDA
:101320000A94E2F7842B8C9350C08A81882309F0B9
:101330004CC0A8E3B0E0E8E3F0E08081482F898169
:10134000882F90E09C012051304081E090E0022EF7
:1013500002C0880F991F0A94E2F7809584238C932A
:1013600034C08A818130B9F4ABE3B0E0EBE3F0E064
:101370008081482F8981882F90E09C01285130403E
:1013800081E090E0022E02C0880F991F0A94E2F7D4
:10139000842B8C931AC08A818823B9F4ABE3B0E024
:1013A000EBE3F0E08081482F8981882F90E09C0159
:1013B0002851304081E090E0022E02C0880F991F32
:1013C0000A94E2F7809584238C930F900F900F90EE
:1013D0000F90CF91DF910895DF93CF9300D000D08D
:1013E000CDB7DEB78A8319828A81282F30E03C830B
:1013F0002B838B819C8181309105D1F02B813C81A5
:10140000223031052CF48B819C81009761F01EC045
:101410002B813C812230310581F08B819C8183308E
:10142000910581F013C0E9E3F0E0808189830EC06B
:10143000E6E3F0E08081898309C0E3E3F0E08081A6
:10144000898304C0E0E3F0E08081898389810F9083
:101450000F900F900F90CF91DF910895DF93CF936E
:1014600000D000D0CDB7DEB78A8319828A81282FB9
:1014700030E03C832B834B815C81403151055CF42F
:101480008B819C81883091058CF52B813C813323A5
:101490000CF491C00DC04B815C81483151050CF4B6
:1014A00047C08B819C81803291050CF084C062C062
:1014B000E0E3F0E08081482F50E08A81282F30E07F
:1014C00081E090E002C0880F991F2A95E2F79A0107
:1014D000282339238A81882F90E0A90102C05595DD
:1014E00047958A95E2F7CA01898365C0E3E3F0E096
:1014F0008081482F50E08A81882F90E09C012850FD
:10150000304081E090E002C0880F991F2A95E2F7F1
:101510009A01282339238A81882F90E00897A9010E
:1015200002C0559547958A95E2F7CA01898343C061
:10153000E6E3F0E08081482F50E08A81882F90E038
:101540009C012051304081E090E002C0880F991F3B
:101550002A95E2F79A01282339238A81882F90E07F
:101560004097A90102C0559547958A95E2F7CA01AF
:10157000898321C0E9E3F0E08081482F50E08A812F
:10158000882F90E09C012851304081E090E002C01B
:10159000880F991F2A95E2F79A01282339238A8117
:1015A000882F90E04897A90102C0559547958A95E4
:1015B000E2F7CA01898389810F900F900F900F90F5
:1015C000CF91DF910895DF93CF93CDB7DEB789E157
:1015D00061E00E94A7078AE161E00E94A7078BE112
:1015E00061E00E94A7078CE160E00E94A7078DE1FF
:1015F00060E00E94A7078EE160E00E94A7078FE1EC
:1016000060E00E94A70780E060EF0E94A908CF91E8
:10161000DF910895DF93CF93CDB7DEB76D970FB607
:10162000F894DEBF0FBECDBF188A1F8689E1888B74
:10163000E4C08889282F30E03D8F2C8F8C8D9D8DC4
:101640008A319105B9F02C8D3D8D2B313105F9F0A2
:101650008C8D9D8D8931910531F589E160E00E9485
:10166000EA088AE161E00E94EA088BE161E00E94F9
:10167000EA0819C089E161E00E94EA088AE160E0B5
:101680000E94EA088BE161E00E94EA080CC089E14F
:1016900061E00E94EA088AE161E00E94EA088BE1C9
:1016A00060E00E94EA088CE18F87A0C08F850E94CD
:1016B0002E0A882309F097C08F85282F30E03B8FB2
:1016C0002A8F8A8D9B8D8D319105A9F12A8D3B8DB5
:1016D0002E31310534F48A8D9B8D8C31910571F05A
:1016E00082C02A8D3B8D2E31310509F442C08A8D8E
:1016F0009B8D8F31910509F459C075C08889282FB9
:1017000030E0398F288F888D998D8A31910571F05D
:10171000288D398D2B31310559F0888D998D89317E
:10172000910509F060C093E29F8BDFC01F8ADDC086
:101730002AE22F8BDAC08889282F30E03E8B2D8B50
:101740008D899E898A31910571F02D893E892B31D1
:10175000310561F08D899E898931910509F043C079
:1017600099E09F8BC2C028E02F8BBFC037E03F8B32
:10177000BCC08889282F30E03C8B2B8B8B899C89BF
:101780008A31910569F02B893C892B31310559F05B
:101790008B899C898931910531F596E09F8BA5C095
:1017A00025E02F8BA2C034E03F8B9FC08889282F73
:1017B00030E03A8B298B89899A898A31910569F0C1
:1017C00029893A892B31310559F089899A898931DA
:1017D000910549F493E09F8B88C022E02F8B85C050
:1017E00031E03F8B82C08F858F5F8F878F858032FE
:1017F00008F45CCF88898F5F888B88898C3108F4E6
:1018000018CF80E090E0A8E4B3E48B879C87AD8795
:10181000BE876B857C858D859E8520E030E04AE71C
:1018200055E40E941F02DC01CB018F839887A987B2
:10183000BA876F81788589859A8520E030E040E815
:101840005FE30E94250488232CF481E090E09E83CE
:101850008D833FC06F81788589859A8520E03FEF31
:101860004FE757E40E94C50318164CF56B857C853D
:101870008D859E8520E030E040E251E40E941F0209
:10188000DC01CB01BC01CD010E944900DC01CB0190
:101890009E838D830FC080E991E09C838B838B8135
:1018A0009C810197F1F79C838B838D819E810197A9
:1018B0009E838D838D819E81009769F714C06F810F
:1018C000788589859A850E944900DC01CB019E8339
:1018D0008D838D819E819A83898389819A810197E5
:1018E000F1F79A8389838FEF8F8B8F896D960FB66F
:1018F000F894DEBF0FBECDBFCF91DF910895DF9387
:10190000CF9300D0CDB7DEB79A8389830E940A0BAC
:10191000882364F00E940A0B992787FD90952981FE
:101920003A81B9014AE050E00E94D6110F900F9021
:10193000CF91DF910895DF93CF93CDB7DEB76D9749
:101940000FB6F894DEBF0FBECDBF8D8F8D8D882F63
:1019500090E0807190709595879595958795959570
:10196000879595958795982F8EE0692F0E94EA08B4
:101970008D8D882F90E080729070959587959595C4
:101980008795959587959595879595958795982FA2
:101990008DE0692F0E94EA088D8D882F90E0807479
:1019A0009070082E892F000C881F990B000C881F3F
:1019B000991F982F8CE0692F0E94EA088D8D982F2F
:1019C000991F9927991F8BE0692F0E94EA0888E0E8
:1019D00061E00E94EA0880E090E0A0E8BFE3898F20
:1019E0009A8FAB8FBC8F698D7A8D8B8D9C8D20E00B
:1019F00030E04AE755E40E941F02DC01CB018D8BE9
:101A00009E8BAF8BB88F6D897E898F89988D20E0F2
:101A100030E040E85FE30E94250488232CF481E055
:101A200090E09C8B8B8B3FC06D897E898F89988DD0
:101A300020E03FEF4FE757E40E94C50318164CF52E
:101A4000698D7A8D8B8D9C8D20E030E040E251E4F1
:101A50000E941F02DC01CB01BC01CD010E944900A4
:101A6000DC01CB019C8B8B8B0FC080E991E09A8BC2
:101A7000898B89899A890197F1F79A8B898B8B8950
:101A80009C8901979C8B8B8B8B899C89009769F72C
:101A900014C06D897E898F89988D0E944900DC0170
:101AA000CB019C8B8B8B8B899C89988B8F878F85A7
:101AB00098890197F1F7988B8F8788E060E00E9402
:101AC000EA088D8D982F91708EE0692F0E94EA08A8
:101AD0008D8D882F90E08270907095958795982FC6
:101AE0008DE0692F0E94EA088D8D882F90E0847028
:101AF00090709595879595958795982F8CE0692F8F
:101B00000E94EA088D8D882F90E0887090709595DE
:101B100087959595879595958795982F8BE0692F53
:101B20000E94EA0888E061E00E94EA0880E090E014
:101B3000A0E8BFE38B879C87AD87BE876B857C85DC
:101B40008D859E8520E030E04AE755E40E941F0223
:101B5000DC01CB018F839887A987BA876F8178854D
:101B600089859A8520E030E040E85FE30E94250403
:101B700088232CF481E090E09E838D833FC06F81A9
:101B8000788589859A8520E03FEF4FE757E40E94EA
:101B9000C50318164CF56B857C858D859E8520E0E8
:101BA00030E040E251E40E941F02DC01CB01BC01A5
:101BB000CD010E944900DC01CB019E838D830FC0C3
:101BC00080E991E09C838B838B819C810197F1F765
:101BD0009C838B838D819E8101979E838D838D81D4
:101BE0009E81009769F714C06F81788589859A85F1
:101BF0000E944900DC01CB019E838D838D819E81F3
:101C00009A83898389819A810197F1F79A838983DD
:101C100088E060E00E94EA086D960FB6F894DEBF97
:101C20000FBECDBFCF91DF910895DF93CF930F9279
:101C3000CDB7DEB789838AE060E00E94EA0889E0D8
:101C400060E00E94EA0889810E949B0C0F90CF916E
:101C5000DF910895DF93CF930F92CDB7DEB78983DD
:101C60008AE061E00E94EA0889E060E00E94EA08F8
:101C700089810E949B0C0F90CF91DF910895DF9393
:101C8000CF93CDB7DEB72E970FB6F894DEBF0FBE59
:101C9000CDBF88E061E00E94A7078AE061E00E9472
:101CA000A70789E061E00E94A70783E20E94150E62
:101CB00082E20E94150E88E20E94150E8EE061E01D
:101CC0000E94A7078DE061E00E94A7078CE061E019
:101CD0000E94A7078BE061E00E94A7078EE00E94A8
:101CE000150E81E00E94150E80E090E0A0E4B0E4C3
:101CF0008B879C87AD87BE876B857C858D859E8510
:101D000020E030E04AE755E40E941F02DC01CB01ED
:101D10008F839887A987BA876F81788589859A8507
:101D200020E030E040E85FE30E94250488232CF4A3
:101D300081E090E09E838D833FC06F8178858985A7
:101D40009A8520E03FEF4FE757E40E94C50318163D
:101D50004CF56B857C858D859E8520E030E040E2EA
:101D600051E40E941F02DC01CB01BC01CD010E94A5
:101D70004900DC01CB019E838D830FC080E991E097
:101D80009C838B838B819C810197F1F79C838B8350
:101D90008D819E8101979E838D838D819E81009789
:101DA00069F714C06F81788589859A850E944900FA
:101DB000DC01CB019E838D838D819E819A838983F3
:101DC00089819A810197F1F79A8389832E960FB6BC
:101DD000F894DEBF0FBECDBFCF91DF910895DF93A2
:101DE000CF93CDB7DEB781E00E94150ECF91DF9182
:101DF0000895DF93CF9300D0CDB7DEB789836A8390
:101E00008A81882F90E0002496958795079496956F
:101E100087950794982F802D982F8981890F805856
:101E20000E94150E0F900F90CF91DF910895DF93D0
:101E3000CF9300D00F92CDB7DEB79B838A831982F0
:101E40000FC08981282F30E08A819B81FC01E20F3D
:101E5000F31F908189818F5F8983892F0E942A0EC9
:101E60008981282F30E08A819B81FC01E20FF31FDA
:101E70008081882331F70F900F900F90CF91DF91E1
:101E80000895DF93CF93CDB7DEB784E061E00E9481
:101E9000A70785E061E00E94A70786E061E00E9455
:101EA000A707CF91DF910895DF93CF9300D00F92D2
:101EB000CDB7DEB789838981282F30E03B832A8321
:101EC0008A819B818130910571F02A813B8122308A
:101ED000310571F08A819B81009771F484E061E0A3
:101EE0000E94EA0809C085E061E00E94EA0804C097
:101EF00086E061E00E94EA080F900F900F90CF916A
:101F0000DF910895DF93CF9300D00F92CDB7DEB766
:101F100089838981282F30E03B832A838A819B81B2
:101F20008130910571F02A813B812230310571F0B9
:101F30008A819B81009771F484E060E00E94EA0846
:101F400009C085E060E00E94EA0804C086E060E025
:101F50000E94EA080F900F900F90CF91DF910895A3
:101F6000DF93CF9300D000D0CDB7DEB78A8319823C
:101F70008A81282F30E03C832B838B819C818130A8
:101F80009105B1F02B813C8122303105F1F08B813C
:101F90009C81009731F584E00E942E0A8983998103
:101FA00081E08927898384E069810E94EA0819C059
:101FB00085E00E942E0A8983998181E0892789839F
:101FC00085E069810E94EA080CC086E00E942E0A22
:101FD0008983998181E08927898386E069810E94CC
:101FE000EA080F900F900F900F90CF91DF91089516
:101FF000DF93CF93CDB7DEB70E946610CF91DF910C
:102000000895DF93CF93CDB7DEB78FE00E94E11044
:10201000CF91DF910895DF93CF93CDB7DEB788ECF2
:102020000E94E110CF91DF910895DF93CF93CDB758
:10203000DEB788E160E00E94A7070E941707CF91F2
:10204000DF910895DF93CF93CDB7DEB780E00E9494
:102050002607CC01A0E0B0E0BC01CD010E94A9049C
:10206000DC01CB01BC01CD0126EF38E24CE950E4A4
:102070000E941F02DC01CB01BC01CD0120E030E059
:1020800040E251E40E941903DC01CB01BC01CD0107
:102090000E944900DC01CB01CF91DF910895DF93CD
:1020A000CF9300D0CDB7DEB79A8389830E942210E8
:1020B000882F90E029813A81B9014AE050E00E94DE
:1020C000D6110F900F90CF91DF910895DF93CF93AA
:1020D000CDB7DEB7A8E5B0E0E8E5F0E08081836049
:1020E0008C93A9E5B0E0E9E5F0E080818C7F8C93EA
:1020F000E2E5F0E01082A3E5B0E0E3E5F0E0808106
:10210000887F8C93A3E5B0E0E3E5F0E08081836015
:102110008C93A3E5B0E0E3E5F0E08081877B8C93CE
:10212000A3E5B0E0E3E5F0E0808188648C93ECE522
:10213000F0E08AEF8083A3E5B0E0E3E5F0E08081A2
:102140008F7C8C93A3E5B0E0E3E5F0E080818063D1
:102150008C9383E161E00E94A707CF91DF910895FE
:10216000DF93CF93CDB7DEB7A9E5B0E0E9E5F0E0C6
:1021700080818C7F8C93A9E5B0E0E9E5F0E0808177
:1021800082608C93CF91DF910895DF93CF93CDB789
:10219000DEB7A9E5B0E0E9E5F0E080818C7F8C93C3
:1021A000CF91DF910895DF93CF930F92CDB7DEB734
:1021B0008983E2E5F0E0898180830F90CF91DF9100
:1021C0000895DF93CF930F92CDB7DEB78983ECE507
:1021D000F0E0898180830F90CF91DF910895DF93A4
:1021E000CF9300D0CDB7DEB79A83898389819A8156
:1021F00090937101809370010F900F90CF91DF91B8
:1022000008951F920F920FB60F9211242F933F93B0
:102210004F935F936F937F938F939F93AF93BF93EE
:10222000EF93FF93DF93CF93CDB7DEB7E0917001CB
:10223000F09171010995CF91DF91FF91EF91BF91DD
:10224000AF919F918F917F916F915F914F913F914E
:102250002F910F900FBE0F901F9018951F920F9205
:102260000FB60F9211242F933F934F935F936F9369
:102270007F938F939F93AF93BF93EF93FF93DF93DE
:10228000CF93CDB7DEB7E0917001F0917101099560
:10229000CF91DF91FF91EF91BF91AF919F918F917E
:1022A0007F916F915F914F913F912F910F900FBE52
:1022B0000F901F901895DF93CF93CDB7DEB7E9E26B
:1022C000F0E087E68083E0E4F0E01082EAE2F0E00C
:1022D00088E98083CF91DF910895DF93CF9300D079
:1022E0000F92CDB7DEB78983EBE2F0E08081ECE2BC
:1022F000F0E089818083EBE2F0E080810F900F9025
:102300000F90CF91DF910895DF93CF9300D0CDB799
:10231000DEB7EBE2F0E08081ECE2F0E080818983DF
:1023200089810F900F90CF91DF910895DF93CF9324
:10233000CDB7DEB780E090E0CF91DF9108952F9286
:102340003F924F925F926F927F928F929F92AF9245
:10235000BF92CF92DF92EF92FF920F931F93CF9392
:10236000DF93CDB7DEB7CA1BDB0B0FB6F894DEBF29
:102370000FBECDBF09942A88398848885F846E844F
:102380007D848C849B84AA84B984C884DF80EE8099
:10239000FD800C811B81AA81B981CE0FD11D0FB6A2
:1023A000F894DEBF0FBECDBFED010895FB019F0184
:1023B000E8944230C4F04532B4F44A3029F497FB33
:1023C0001EF4909581959F4F642F77270E940712E6
:1023D000805D8A330CF0895D8193CB010097A1F772
:1023E00016F45DE251931082C9010C94F711DC01DF
:1023F000FC01672F71917723E1F7329704C07C913C
:102400006D9370836291AE17BF07C8F30895AA1B3E
:10241000BB1B51E107C0AA1FBB1FA617B70710F0CF
:10242000A61BB70B881F991F5A95A9F78095909501
:0A243000BC01CD010895F894FFCF20
:10243A000000000000000000000102020303030381
:10244A00040404040404040405050505050505053A
:10245A00050505050505050506060606060606061A
:10246A000606060606060606060606060606060602
:10247A0006060606060606060707070707070707EA
:10248A0007070707070707070707070707070707D2
:10249A0007070707070707070707070707070707C2
:1024AA0007070707070707070707070707070707B2
:1024BA00070707070707070708080808080808089A
:1024CA000808080808080808080808080808080882
:1024DA000808080808080808080808080808080872
:1024EA000808080808080808080808080808080862
:1024FA000808080808080808080808080808080852
:10250A000808080808080808080808080808080841
:10251A000808080808080808080808080808080831
:10252A000808080808080808080808080808080821
:10253A0008080808080808088025000000030000A9
:00000001FF
